{
  "_format": "hh-sol-artifact-1",
  "contractName": "VaultStorage",
  "sourceName": "contracts/VaultManager.sol",
  "abi": [
    {
      "anonymous": false,
      "inputs": [
        {
          "indexed": true,
          "internalType": "address",
          "name": "user",
          "type": "address"
        },
        {
          "indexed": false,
          "internalType": "uint256",
          "name": "entryId",
          "type": "uint256"
        }
      ],
      "name": "EntryCreated",
      "type": "event"
    },
    {
      "anonymous": false,
      "inputs": [
        {
          "indexed": true,
          "internalType": "address",
          "name": "user",
          "type": "address"
        },
        {
          "indexed": false,
          "internalType": "uint256",
          "name": "entryId",
          "type": "uint256"
        }
      ],
      "name": "EntryDeleted",
      "type": "event"
    },
    {
      "anonymous": false,
      "inputs": [
        {
          "indexed": true,
          "internalType": "address",
          "name": "user",
          "type": "address"
        },
        {
          "indexed": false,
          "internalType": "uint256",
          "name": "entryId",
          "type": "uint256"
        }
      ],
      "name": "EntryUpdated",
      "type": "event"
    },
    {
      "inputs": [
        {
          "internalType": "string",
          "name": "encryptedData",
          "type": "string"
        }
      ],
      "name": "createEntry",
      "outputs": [],
      "stateMutability": "nonpayable",
      "type": "function"
    },
    {
      "inputs": [
        {
          "internalType": "uint256",
          "name": "entryId",
          "type": "uint256"
        }
      ],
      "name": "deleteEntry",
      "outputs": [],
      "stateMutability": "nonpayable",
      "type": "function"
    },
    {
      "inputs": [
        {
          "internalType": "uint256",
          "name": "entryId",
          "type": "uint256"
        }
      ],
      "name": "getEntry",
      "outputs": [
        {
          "internalType": "string",
          "name": "",
          "type": "string"
        }
      ],
      "stateMutability": "view",
      "type": "function"
    },
    {
      "inputs": [
        {
          "internalType": "address",
          "name": "user",
          "type": "address"
        }
      ],
      "name": "getUserEntryCount",
      "outputs": [
        {
          "internalType": "uint256",
          "name": "",
          "type": "uint256"
        }
      ],
      "stateMutability": "view",
      "type": "function"
    },
    {
      "inputs": [
        {
          "internalType": "uint256",
          "name": "entryId",
          "type": "uint256"
        },
        {
          "internalType": "string",
          "name": "newEncryptedData",
          "type": "string"
        }
      ],
      "name": "updateEntry",
      "outputs": [],
      "stateMutability": "nonpayable",
      "type": "function"
    }
  ],
  "bytecode": "0x6080604052348015600f57600080fd5b50610f2a8061001f6000396000f3fe608060405234801561001057600080fd5b50600436106100575760003560e01c80630f0035091461005c57806311f7516c14610078578063b2a8116a14610094578063bae78d7b146100c4578063bec9a469146100f4575b600080fd5b6100766004803603810190610071919061090b565b610110565b005b610092600480360381019061008d9190610967565b610261565b005b6100ae60048036038101906100a991906109f2565b6103c7565b6040516100bb9190610a2e565b60405180910390f35b6100de60048036038101906100d99190610967565b610410565b6040516100eb9190610ac8565b60405180910390f35b61010e60048036038101906101099190610aea565b610593565b005b6000803373ffffffffffffffffffffffffffffffffffffffff1673ffffffffffffffffffffffffffffffffffffffff168152602001908152602001600020600083815260200190815260200160002060010160009054906101000a900460ff166101af576040517f08c379a00000000000000000000000000000000000000000000000000000000081526004016101a690610b7f565b60405180910390fd5b806000803373ffffffffffffffffffffffffffffffffffffffff1673ffffffffffffffffffffffffffffffffffffffff1681526020019081526020016000206000848152602001908152602001600020600001908161020e9190610dab565b503373ffffffffffffffffffffffffffffffffffffffff167f9d713706ff1ce337670e490ab9f779f7dc2cb5437e6cd35821f79dabbf347d3c836040516102559190610a2e565b60405180910390a25050565b6000803373ffffffffffffffffffffffffffffffffffffffff1673ffffffffffffffffffffffffffffffffffffffff168152602001908152602001600020600082815260200190815260200160002060010160009054906101000a900460ff16610300576040517f08c379a00000000000000000000000000000000000000000000000000000000081526004016102f790610b7f565b60405180910390fd5b6000803373ffffffffffffffffffffffffffffffffffffffff1673ffffffffffffffffffffffffffffffffffffffff168152602001908152602001600020600082815260200190815260200160002060008082016000610360919061071e565b6001820160006101000a81549060ff021916905550503373ffffffffffffffffffffffffffffffffffffffff167f863d345cb8a315b82cf25ba9b949c03407c0298f0b316ee400d4a2256a96a194826040516103bc9190610a2e565b60405180910390a250565b6000600160008373ffffffffffffffffffffffffffffffffffffffff1673ffffffffffffffffffffffffffffffffffffffff168152602001908152602001600020549050919050565b60606000803373ffffffffffffffffffffffffffffffffffffffff1673ffffffffffffffffffffffffffffffffffffffff168152602001908152602001600020600083815260200190815260200160002060010160009054906101000a900460ff166104b1576040517f08c379a00000000000000000000000000000000000000000000000000000000081526004016104a890610b7f565b60405180910390fd5b6000803373ffffffffffffffffffffffffffffffffffffffff1673ffffffffffffffffffffffffffffffffffffffff1681526020019081526020016000206000838152602001908152602001600020600001805461050e90610bce565b80601f016020809104026020016040519081016040528092919081815260200182805461053a90610bce565b80156105875780601f1061055c57610100808354040283529160200191610587565b820191906000526020600020905b81548152906001019060200180831161056a57829003601f168201915b50505050509050919050565b6000600160003373ffffffffffffffffffffffffffffffffffffffff1673ffffffffffffffffffffffffffffffffffffffff1681526020019081526020016000205490506040518060400160405280838152602001600115158152506000803373ffffffffffffffffffffffffffffffffffffffff1673ffffffffffffffffffffffffffffffffffffffff168152602001908152602001600020600083815260200190815260200160002060008201518160000190816106539190610dab565b5060208201518160010160006101000a81548160ff021916908315150217905550905050600160003373ffffffffffffffffffffffffffffffffffffffff1673ffffffffffffffffffffffffffffffffffffffff16815260200190815260200160002060008154809291906106c790610eac565b91905055503373ffffffffffffffffffffffffffffffffffffffff167fe9a0a2aca9c41fae94448dec8914ad73e4d00ebdc2427e61f3fc66919f4ffa2a826040516107129190610a2e565b60405180910390a25050565b50805461072a90610bce565b6000825580601f1061073c575061075b565b601f01602090049060005260206000209081019061075a919061075e565b5b50565b5b8082111561077757600081600090555060010161075f565b5090565b6000604051905090565b600080fd5b600080fd5b6000819050919050565b6107a28161078f565b81146107ad57600080fd5b50565b6000813590506107bf81610799565b92915050565b600080fd5b600080fd5b6000601f19601f8301169050919050565b7f4e487b7100000000000000000000000000000000000000000000000000000000600052604160045260246000fd5b610818826107cf565b810181811067ffffffffffffffff82111715610837576108366107e0565b5b80604052505050565b600061084a61077b565b9050610856828261080f565b919050565b600067ffffffffffffffff821115610876576108756107e0565b5b61087f826107cf565b9050602081019050919050565b82818337600083830152505050565b60006108ae6108a98461085b565b610840565b9050828152602081018484840111156108ca576108c96107ca565b5b6108d584828561088c565b509392505050565b600082601f8301126108f2576108f16107c5565b5b813561090284826020860161089b565b91505092915050565b6000806040838503121561092257610921610785565b5b6000610930858286016107b0565b925050602083013567ffffffffffffffff8111156109515761095061078a565b5b61095d858286016108dd565b9150509250929050565b60006020828403121561097d5761097c610785565b5b600061098b848285016107b0565b91505092915050565b600073ffffffffffffffffffffffffffffffffffffffff82169050919050565b60006109bf82610994565b9050919050565b6109cf816109b4565b81146109da57600080fd5b50565b6000813590506109ec816109c6565b92915050565b600060208284031215610a0857610a07610785565b5b6000610a16848285016109dd565b91505092915050565b610a288161078f565b82525050565b6000602082019050610a436000830184610a1f565b92915050565b600081519050919050565b600082825260208201905092915050565b60005b83811015610a83578082015181840152602081019050610a68565b60008484015250505050565b6000610a9a82610a49565b610aa48185610a54565b9350610ab4818560208601610a65565b610abd816107cf565b840191505092915050565b60006020820190508181036000830152610ae28184610a8f565b905092915050565b600060208284031215610b0057610aff610785565b5b600082013567ffffffffffffffff811115610b1e57610b1d61078a565b5b610b2a848285016108dd565b91505092915050565b7f456e74727920646f6573206e6f74206578697374000000000000000000000000600082015250565b6000610b69601483610a54565b9150610b7482610b33565b602082019050919050565b60006020820190508181036000830152610b9881610b5c565b9050919050565b7f4e487b7100000000000000000000000000000000000000000000000000000000600052602260045260246000fd5b60006002820490506001821680610be657607f821691505b602082108103610bf957610bf8610b9f565b5b50919050565b60008190508160005260206000209050919050565b60006020601f8301049050919050565b600082821b905092915050565b600060088302610c617fffffffffffffffffffffffffffffffffffffffffffffffffffffffffffffffff82610c24565b610c6b8683610c24565b95508019841693508086168417925050509392505050565b6000819050919050565b6000610ca8610ca3610c9e8461078f565b610c83565b61078f565b9050919050565b6000819050919050565b610cc283610c8d565b610cd6610cce82610caf565b848454610c31565b825550505050565b600090565b610ceb610cde565b610cf6818484610cb9565b505050565b5b81811015610d1a57610d0f600082610ce3565b600181019050610cfc565b5050565b601f821115610d5f57610d3081610bff565b610d3984610c14565b81016020851015610d48578190505b610d5c610d5485610c14565b830182610cfb565b50505b505050565b600082821c905092915050565b6000610d8260001984600802610d64565b1980831691505092915050565b6000610d9b8383610d71565b9150826002028217905092915050565b610db482610a49565b67ffffffffffffffff811115610dcd57610dcc6107e0565b5b610dd78254610bce565b610de2828285610d1e565b600060209050601f831160018114610e155760008415610e03578287015190505b610e0d8582610d8f565b865550610e75565b601f198416610e2386610bff565b60005b82811015610e4b57848901518255600182019150602085019450602081019050610e26565b86831015610e685784890151610e64601f891682610d71565b8355505b6001600288020188555050505b505050505050565b7f4e487b7100000000000000000000000000000000000000000000000000000000600052601160045260246000fd5b6000610eb78261078f565b91507fffffffffffffffffffffffffffffffffffffffffffffffffffffffffffffffff8203610ee957610ee8610e7d565b5b60018201905091905056fea2646970667358221220e4d333f2afae1906e843bd5fca6f575d8dadafdc049f92b1b6c4a1d727b01fb364736f6c634300081c0033",
  "linkReferences": {},
  "deployedLinkReferences": {}
}